{
  "_format": "hh-sol-artifact-1",
  "contractName": "InsuranceClaimsWithUserAndAdmin",
  "sourceName": "contracts/Lock.sol",
  "abi": [
    {
      "inputs": [],
      "stateMutability": "nonpayable",
      "type": "constructor"
    },
    {
      "anonymous": false,
      "inputs": [
        {
          "indexed": true,
          "internalType": "uint256",
          "name": "claimId",
          "type": "uint256"
        },
        {
          "indexed": false,
          "internalType": "enum InsuranceClaimsWithUserAndAdmin.ClaimStatus",
          "name": "status",
          "type": "uint8"
        },
        {
          "indexed": false,
          "internalType": "address",
          "name": "actor",
          "type": "address"
        },
        {
          "indexed": false,
          "internalType": "string",
          "name": "actionDetails",
          "type": "string"
        },
        {
          "indexed": false,
          "internalType": "uint256",
          "name": "timestamp",
          "type": "uint256"
        }
      ],
      "name": "AuditLog",
      "type": "event"
    },
    {
      "anonymous": false,
      "inputs": [
        {
          "indexed": true,
          "internalType": "uint256",
          "name": "claimId",
          "type": "uint256"
        },
        {
          "indexed": false,
          "internalType": "uint256",
          "name": "amount",
          "type": "uint256"
        }
      ],
      "name": "ClaimApproved",
      "type": "event"
    },
    {
      "anonymous": false,
      "inputs": [
        {
          "indexed": true,
          "internalType": "uint256",
          "name": "claimId",
          "type": "uint256"
        },
        {
          "indexed": false,
          "internalType": "string",
          "name": "reason",
          "type": "string"
        }
      ],
      "name": "ClaimRejected",
      "type": "event"
    },
    {
      "anonymous": false,
      "inputs": [
        {
          "indexed": true,
          "internalType": "uint256",
          "name": "claimId",
          "type": "uint256"
        },
        {
          "indexed": true,
          "internalType": "address",
          "name": "policyholder",
          "type": "address"
        },
        {
          "indexed": false,
          "internalType": "uint256",
          "name": "amount",
          "type": "uint256"
        }
      ],
      "name": "ClaimSubmitted",
      "type": "event"
    },
    {
      "anonymous": false,
      "inputs": [
        {
          "indexed": true,
          "internalType": "address",
          "name": "userAddress",
          "type": "address"
        },
        {
          "indexed": false,
          "internalType": "string",
          "name": "name",
          "type": "string"
        }
      ],
      "name": "UserRegistered",
      "type": "event"
    },
    {
      "anonymous": false,
      "inputs": [
        {
          "indexed": true,
          "internalType": "address",
          "name": "insurerAddress",
          "type": "address"
        },
        {
          "indexed": false,
          "internalType": "string",
          "name": "insurerName",
          "type": "string"
        }
      ],
      "name": "addedInsurer",
      "type": "event"
    },
    {
      "anonymous": false,
      "inputs": [
        {
          "indexed": true,
          "internalType": "uint256",
          "name": "policyId",
          "type": "uint256"
        },
        {
          "indexed": false,
          "internalType": "string",
          "name": "policyName",
          "type": "string"
        }
      ],
      "name": "newPolicyAdded",
      "type": "event"
    },
    {
      "inputs": [
        {
          "internalType": "address",
          "name": "_insurerAddress",
          "type": "address"
        },
        {
          "internalType": "string",
          "name": "_insurerName",
          "type": "string"
        },
        {
          "internalType": "string",
          "name": "_email",
          "type": "string"
        }
      ],
      "name": "addInsurer",
      "outputs": [],
      "stateMutability": "nonpayable",
      "type": "function"
    },
    {
      "inputs": [
        {
          "internalType": "string",
          "name": "_policyName",
          "type": "string"
        },
        {
          "internalType": "uint256",
          "name": "_policyAmount",
          "type": "uint256"
        },
        {
          "internalType": "uint256",
          "name": "_premiumAmount",
          "type": "uint256"
        }
      ],
      "name": "addPolicy",
      "outputs": [],
      "stateMutability": "nonpayable",
      "type": "function"
    },
    {
      "inputs": [
        {
          "internalType": "uint256",
          "name": "_claimId",
          "type": "uint256"
        }
      ],
      "name": "approveClaim",
      "outputs": [],
      "stateMutability": "nonpayable",
      "type": "function"
    },
    {
      "inputs": [
        {
          "internalType": "address",
          "name": "_userAddress",
          "type": "address"
        },
        {
          "internalType": "uint256",
          "name": "_policyId",
          "type": "uint256"
        }
      ],
      "name": "assignPolicyToUser",
      "outputs": [],
      "stateMutability": "nonpayable",
      "type": "function"
    },
    {
      "inputs": [
        {
          "internalType": "uint256",
          "name": "",
          "type": "uint256"
        },
        {
          "internalType": "uint256",
          "name": "",
          "type": "uint256"
        }
      ],
      "name": "claimAudits",
      "outputs": [
        {
          "internalType": "uint256",
          "name": "timestamp",
          "type": "uint256"
        },
        {
          "internalType": "enum InsuranceClaimsWithUserAndAdmin.ClaimStatus",
          "name": "status",
          "type": "uint8"
        },
        {
          "internalType": "address",
          "name": "actor",
          "type": "address"
        },
        {
          "internalType": "string",
          "name": "actionDetails",
          "type": "string"
        }
      ],
      "stateMutability": "view",
      "type": "function"
    },
    {
      "inputs": [],
      "name": "claimCounter",
      "outputs": [
        {
          "internalType": "uint256",
          "name": "",
          "type": "uint256"
        }
      ],
      "stateMutability": "view",
      "type": "function"
    },
    {
      "inputs": [
        {
          "internalType": "uint256",
          "name": "",
          "type": "uint256"
        }
      ],
      "name": "claims",
      "outputs": [
        {
          "internalType": "uint256",
          "name": "claimId",
          "type": "uint256"
        },
        {
          "internalType": "uint256",
          "name": "policyId",
          "type": "uint256"
        },
        {
          "internalType": "address",
          "name": "policyholder",
          "type": "address"
        },
        {
          "internalType": "string",
          "name": "documentHash",
          "type": "string"
        },
        {
          "internalType": "uint256",
          "name": "amount",
          "type": "uint256"
        },
        {
          "internalType": "enum InsuranceClaimsWithUserAndAdmin.ClaimStatus",
          "name": "status",
          "type": "uint8"
        },
        {
          "internalType": "uint256",
          "name": "dateOfIncident",
          "type": "uint256"
        },
        {
          "internalType": "uint256",
          "name": "dateOfClaim",
          "type": "uint256"
        }
      ],
      "stateMutability": "view",
      "type": "function"
    },
    {
      "inputs": [],
      "name": "getAllPolicys",
      "outputs": [
        {
          "components": [
            {
              "internalType": "uint256",
              "name": "policyId",
              "type": "uint256"
            },
            {
              "internalType": "string",
              "name": "policyName",
              "type": "string"
            },
            {
              "internalType": "uint256",
              "name": "policyAmount",
              "type": "uint256"
            },
            {
              "internalType": "uint256",
              "name": "premiumAmount",
              "type": "uint256"
            },
            {
              "internalType": "bool",
              "name": "validPolicy",
              "type": "bool"
            }
          ],
          "internalType": "struct InsuranceClaimsWithUserAndAdmin.Policy[]",
          "name": "",
          "type": "tuple[]"
        }
      ],
      "stateMutability": "view",
      "type": "function"
    },
    {
      "inputs": [
        {
          "internalType": "uint256",
          "name": "_claimId",
          "type": "uint256"
        }
      ],
      "name": "getClaimAuditTrail",
      "outputs": [
        {
          "components": [
            {
              "internalType": "uint256",
              "name": "timestamp",
              "type": "uint256"
            },
            {
              "internalType": "enum InsuranceClaimsWithUserAndAdmin.ClaimStatus",
              "name": "status",
              "type": "uint8"
            },
            {
              "internalType": "address",
              "name": "actor",
              "type": "address"
            },
            {
              "internalType": "string",
              "name": "actionDetails",
              "type": "string"
            }
          ],
          "internalType": "struct InsuranceClaimsWithUserAndAdmin.ClaimAudit[]",
          "name": "",
          "type": "tuple[]"
        }
      ],
      "stateMutability": "view",
      "type": "function"
    },
    {
      "inputs": [
        {
          "internalType": "address",
          "name": "_userAddress",
          "type": "address"
        }
      ],
      "name": "getPolicysUnderUser",
      "outputs": [
        {
          "components": [
            {
              "internalType": "uint256",
              "name": "policyId",
              "type": "uint256"
            },
            {
              "internalType": "string",
              "name": "policyName",
              "type": "string"
            },
            {
              "internalType": "uint256",
              "name": "policyAmount",
              "type": "uint256"
            },
            {
              "internalType": "uint256",
              "name": "premiumAmount",
              "type": "uint256"
            },
            {
              "internalType": "bool",
              "name": "validPolicy",
              "type": "bool"
            }
          ],
          "internalType": "struct InsuranceClaimsWithUserAndAdmin.Policy[]",
          "name": "",
          "type": "tuple[]"
        }
      ],
      "stateMutability": "view",
      "type": "function"
    },
    {
      "inputs": [
        {
          "internalType": "address",
          "name": "_policyholder",
          "type": "address"
        }
      ],
      "name": "getUserClaims",
      "outputs": [
        {
          "internalType": "uint256[]",
          "name": "",
          "type": "uint256[]"
        }
      ],
      "stateMutability": "view",
      "type": "function"
    },
    {
      "inputs": [
        {
          "internalType": "address",
          "name": "",
          "type": "address"
        }
      ],
      "name": "insurers",
      "outputs": [
        {
          "internalType": "address",
          "name": "insurerAddress",
          "type": "address"
        },
        {
          "internalType": "string",
          "name": "insurerName",
          "type": "string"
        },
        {
          "internalType": "string",
          "name": "email",
          "type": "string"
        },
        {
          "internalType": "bool",
          "name": "isInsurer",
          "type": "bool"
        }
      ],
      "stateMutability": "view",
      "type": "function"
    },
    {
      "inputs": [
        {
          "internalType": "uint256",
          "name": "",
          "type": "uint256"
        }
      ],
      "name": "policy",
      "outputs": [
        {
          "internalType": "uint256",
          "name": "policyId",
          "type": "uint256"
        },
        {
          "internalType": "string",
          "name": "policyName",
          "type": "string"
        },
        {
          "internalType": "uint256",
          "name": "policyAmount",
          "type": "uint256"
        },
        {
          "internalType": "uint256",
          "name": "premiumAmount",
          "type": "uint256"
        },
        {
          "internalType": "bool",
          "name": "validPolicy",
          "type": "bool"
        }
      ],
      "stateMutability": "view",
      "type": "function"
    },
    {
      "inputs": [],
      "name": "policyCounter",
      "outputs": [
        {
          "internalType": "uint256",
          "name": "",
          "type": "uint256"
        }
      ],
      "stateMutability": "view",
      "type": "function"
    },
    {
      "inputs": [
        {
          "internalType": "address",
          "name": "_userAddress",
          "type": "address"
        },
        {
          "internalType": "string",
          "name": "_name",
          "type": "string"
        },
        {
          "internalType": "string",
          "name": "_email",
          "type": "string"
        }
      ],
      "name": "registerUser",
      "outputs": [],
      "stateMutability": "nonpayable",
      "type": "function"
    },
    {
      "inputs": [
        {
          "internalType": "uint256",
          "name": "_claimId",
          "type": "uint256"
        },
        {
          "internalType": "string",
          "name": "reason",
          "type": "string"
        }
      ],
      "name": "rejectClaim",
      "outputs": [],
      "stateMutability": "nonpayable",
      "type": "function"
    },
    {
      "inputs": [
        {
          "internalType": "address",
          "name": "_insurerAddress",
          "type": "address"
        }
      ],
      "name": "removeInsurer",
      "outputs": [],
      "stateMutability": "nonpayable",
      "type": "function"
    },
    {
      "inputs": [
        {
          "internalType": "uint256",
          "name": "_policyId",
          "type": "uint256"
        }
      ],
      "name": "removePolicy",
      "outputs": [],
      "stateMutability": "nonpayable",
      "type": "function"
    },
    {
      "inputs": [
        {
          "internalType": "address",
          "name": "_userAddress",
          "type": "address"
        }
      ],
      "name": "removeUser",
      "outputs": [],
      "stateMutability": "nonpayable",
      "type": "function"
    },
    {
      "inputs": [
        {
          "internalType": "uint256",
          "name": "_policyId",
          "type": "uint256"
        },
        {
          "internalType": "string",
          "name": "_documentHash",
          "type": "string"
        },
        {
          "internalType": "uint256",
          "name": "_amount",
          "type": "uint256"
        },
        {
          "internalType": "uint256",
          "name": "_dateOfIncident",
          "type": "uint256"
        }
      ],
      "name": "submitClaim",
      "outputs": [],
      "stateMutability": "nonpayable",
      "type": "function"
    },
    {
      "inputs": [
        {
          "internalType": "address",
          "name": "",
          "type": "address"
        },
        {
          "internalType": "uint256",
          "name": "",
          "type": "uint256"
        }
      ],
      "name": "userClaims",
      "outputs": [
        {
          "internalType": "uint256",
          "name": "",
          "type": "uint256"
        }
      ],
      "stateMutability": "view",
      "type": "function"
    },
    {
      "inputs": [
        {
          "internalType": "address",
          "name": "",
          "type": "address"
        }
      ],
      "name": "users",
      "outputs": [
        {
          "internalType": "address",
          "name": "userAddress",
          "type": "address"
        },
        {
          "internalType": "string",
          "name": "name",
          "type": "string"
        },
        {
          "internalType": "string",
          "name": "email",
          "type": "string"
        },
        {
          "internalType": "bool",
          "name": "isUpToDateOnPolicyPayments",
          "type": "bool"
        },
        {
          "internalType": "uint256",
          "name": "no_of_fraud_claims",
          "type": "uint256"
        },
        {
          "internalType": "bool",
          "name": "isRegistered",
          "type": "bool"
        }
      ],
      "stateMutability": "view",
      "type": "function"
    }
  ],
  "bytecode": "0x60a060405234801561001057600080fd5b503373ffffffffffffffffffffffffffffffffffffffff1660808173ffffffffffffffffffffffffffffffffffffffff168152505060805161424b61007c60003960008181610d46015281816112e4015281816114ee015281816115f2015261184d015261424b6000f3fe608060405234801561001057600080fd5b50600436106101425760003560e01c80637bcb4a64116100b8578063a888c2cd1161007c578063a888c2cd14610378578063c8f101a3146103af578063ca9748ea146103e2578063d52c1bea14610412578063db0c87c914610430578063de45aeef1461044c57610142565b80637bcb4a64146102ab57806383e9dcb3146102db57806398575188146102f75780639c2c2bfe14610313578063a87430ba1461034357610142565b8063580448001161010a57806358044800146101ef5780635992ad431461020b5780635e67cfc91461023b5780636957c389146102575780636caddcdc1461027357806373bf9e7c1461028f57610142565b80633577a5ad146101475780633cea51201461016357806346e30135146101975780634c3ad5b0146101b35780634efa8f17146101d1575b600080fd5b610161600480360381019061015c9190612b8b565b61047f565b005b61017d60048036038101906101789190612beb565b610707565b60405161018e959493929190612cd2565b60405180910390f35b6101b160048036038101906101ac9190612beb565b6107d2565b005b6101bb61099f565b6040516101c89190612ecc565b60405180910390f35b6101d9610b39565b6040516101e69190612eee565b60405180910390f35b61020960048036038101906102049190612f67565b610b3f565b005b61022560048036038101906102209190612beb565b610d2b565b6040516102329190613152565b60405180910390f35b61025560048036038101906102509190613174565b610f58565b005b610271600480360381019061026c91906131fc565b6112cb565b005b61028d60048036038101906102889190612beb565b6114d5565b005b6102a960048036038101906102a49190613229565b6115d9565b005b6102c560048036038101906102c091906131fc565b61179d565b6040516102d2919061334c565b60405180910390f35b6102f560048036038101906102f0919061336e565b611834565b005b610311600480360381019061030c91906131fc565b611b40565b005b61032d600480360381019061032891906131fc565b611dcf565b60405161033a9190612ecc565b60405180910390f35b61035d600480360381019061035891906131fc565b612009565b60405161036f96959493929190613412565b60405180910390f35b610392600480360381019061038d9190612beb565b61218f565b6040516103a6989796959493929190613490565b60405180910390f35b6103c960048036038101906103c49190613515565b61228c565b6040516103d99493929190613555565b60405180910390f35b6103fc60048036038101906103f79190612f67565b61238e565b6040516104099190612eee565b60405180910390f35b61041a6123bf565b6040516104279190612eee565b60405180910390f35b61044a6004803603810190610445919061336e565b6123c5565b005b610466600480360381019061046191906131fc565b612776565b60405161047694939291906135a1565b60405180910390f35b600160003373ffffffffffffffffffffffffffffffffffffffff1673ffffffffffffffffffffffffffffffffffffffff16815260200190815260200160002060030160009054906101000a900460ff1661050e576040517f08c379a000000000000000000000000000000000000000000000000000000000815260040161050590613666565b60405180910390fd5b60006003600085815260200190815260200160002090506000600281111561053957610538612fd3565b5b8160050160009054906101000a900460ff16600281111561055d5761055c612fd3565b5b1461059d576040517f08c379a0000000000000000000000000000000000000000000000000000000008152600401610594906136d2565b60405180910390fd5b60028160050160006101000a81548160ff021916908360028111156105c5576105c4612fd3565b5b02179055506040516020016105d990613749565b604051602081830303815290604052805190602001208383604051602001610602929190613792565b6040516020818303038152906040528051906020012003610699576000808260020160009054906101000a900473ffffffffffffffffffffffffffffffffffffffff1673ffffffffffffffffffffffffffffffffffffffff1673ffffffffffffffffffffffffffffffffffffffff1681526020019081526020016000206005016000815480929190610693906137da565b91905055505b6106c78460023386866040516020016106b392919061386e565b6040516020818303038152906040526128e3565b837f43cc3d080e025c67c26d62b18bd442511dc9c76c8aa3f48cc0e8f456173e61f184846040516106f99291906138bf565b60405180910390a250505050565b600260205280600052604060002060009150905080600001549080600101805461073090613912565b80601f016020809104026020016040519081016040528092919081815260200182805461075c90613912565b80156107a95780601f1061077e576101008083540402835291602001916107a9565b820191906000526020600020905b81548152906001019060200180831161078c57829003601f168201915b5050505050908060020154908060030154908060040160009054906101000a900460ff16905085565b600160003373ffffffffffffffffffffffffffffffffffffffff1673ffffffffffffffffffffffffffffffffffffffff16815260200190815260200160002060030160009054906101000a900460ff16610861576040517f08c379a000000000000000000000000000000000000000000000000000000000815260040161085890613666565b60405180910390fd5b60006003600083815260200190815260200160002090506000600281111561088c5761088b612fd3565b5b8160050160009054906101000a900460ff1660028111156108b0576108af612fd3565b5b146108f0576040517f08c379a00000000000000000000000000000000000000000000000000000000081526004016108e7906136d2565b60405180910390fd5b60018160050160006101000a81548160ff0219169083600281111561091857610917612fd3565b5b021790555061095f826001336040518060400160405280600e81526020017f436c61696d20617070726f7665640000000000000000000000000000000000008152506128e3565b817f638d892b8630b775fea5d7a52b209e8bfa1d90c32b57cd37208ac84d4bcd6dcb82600401546040516109939190612eee565b60405180910390a25050565b6060600060075467ffffffffffffffff8111156109bf576109be613943565b5b6040519080825280602002602001820160405280156109f857816020015b6109e5612a4b565b8152602001906001900390816109dd5790505b5090506000600190505b6007548111610b3157600260008281526020019081526020016000206040518060a001604052908160008201548152602001600182018054610a4390613912565b80601f0160208091040260200160405190810160405280929190818152602001828054610a6f90613912565b8015610abc5780601f10610a9157610100808354040283529160200191610abc565b820191906000526020600020905b815481529060010190602001808311610a9f57829003601f168201915b5050505050815260200160028201548152602001600382015481526020016004820160009054906101000a900460ff16151515158152505082600183610b029190613972565b81518110610b1357610b126139a6565b5b60200260200101819052508080610b29906137da565b915050610a02565b508091505090565b60065481565b600160003373ffffffffffffffffffffffffffffffffffffffff1673ffffffffffffffffffffffffffffffffffffffff16815260200190815260200160002060030160009054906101000a900460ff16610bce576040517f08c379a0000000000000000000000000000000000000000000000000000000008152600401610bc590613666565b60405180910390fd5b6000808373ffffffffffffffffffffffffffffffffffffffff1673ffffffffffffffffffffffffffffffffffffffff16815260200190815260200160002060060160009054906101000a900460ff16610c5c576040517f08c379a0000000000000000000000000000000000000000000000000000000008152600401610c5390613a21565b60405180910390fd5b6002600082815260200190815260200160002060040160009054906101000a900460ff16610cbf576040517f08c379a0000000000000000000000000000000000000000000000000000000008152600401610cb690613a8d565b60405180910390fd5b6000808373ffffffffffffffffffffffffffffffffffffffff1673ffffffffffffffffffffffffffffffffffffffff1681526020019081526020016000206003018190806001815401808255809150506001900390600052602060002001600090919091909150555050565b60603373ffffffffffffffffffffffffffffffffffffffff167f000000000000000000000000000000000000000000000000000000000000000073ffffffffffffffffffffffffffffffffffffffff1614610dbb576040517f08c379a0000000000000000000000000000000000000000000000000000000008152600401610db290613b1f565b60405180910390fd5b60056000838152602001908152602001600020805480602002602001604051908101604052809291908181526020016000905b82821015610f4d5783829060005260206000209060030201604051806080016040529081600082015481526020016001820160009054906101000a900460ff166002811115610e4057610e3f612fd3565b5b6002811115610e5257610e51612fd3565b5b81526020016001820160019054906101000a900473ffffffffffffffffffffffffffffffffffffffff1673ffffffffffffffffffffffffffffffffffffffff1673ffffffffffffffffffffffffffffffffffffffff168152602001600282018054610ebc90613912565b80601f0160208091040260200160405190810160405280929190818152602001828054610ee890613912565b8015610f355780601f10610f0a57610100808354040283529160200191610f35565b820191906000526020600020905b815481529060010190602001808311610f1857829003601f168201915b50505050508152505081526020019060010190610dee565b505050509050919050565b6000803373ffffffffffffffffffffffffffffffffffffffff1673ffffffffffffffffffffffffffffffffffffffff16815260200190815260200160002060060160009054906101000a900460ff16610fe6576040517f08c379a0000000000000000000000000000000000000000000000000000000008152600401610fdd90613bb1565b60405180910390fd5b60008211611029576040517f08c379a000000000000000000000000000000000000000000000000000000000815260040161102090613c43565b60405180910390fd5b6006600081548092919061103c906137da565b9190505550600060405180610100016040528060065481526020018781526020013373ffffffffffffffffffffffffffffffffffffffff16815260200186868080601f016020809104026020016040519081016040528093929190818152602001838380828437600081840152601f19601f820116905080830192505050505050508152602001848152602001600060028111156110dd576110dc612fd3565b5b815260200183815260200142815250905080600360006006548152602001908152602001600020600082015181600001556020820151816001015560408201518160020160006101000a81548173ffffffffffffffffffffffffffffffffffffffff021916908373ffffffffffffffffffffffffffffffffffffffff16021790555060608201518160030190816111749190613e0f565b506080820151816004015560a08201518160050160006101000a81548160ff021916908360028111156111aa576111a9612fd3565b5b021790555060c0820151816006015560e08201518160070155905050600460003373ffffffffffffffffffffffffffffffffffffffff1673ffffffffffffffffffffffffffffffffffffffff16815260200190815260200160002060065490806001815401808255809150506001900390600052602060002001600090919091909150556112726006546000336040518060400160405280600f81526020017f436c61696d207375626d697474656400000000000000000000000000000000008152506128e3565b3373ffffffffffffffffffffffffffffffffffffffff166006547f01bc0f9d4f6b0c66e2bda5f433d9760d7eb48e89b73ffea517a7ba5e4fe0657d856040516112bb9190612eee565b60405180910390a3505050505050565b3373ffffffffffffffffffffffffffffffffffffffff167f000000000000000000000000000000000000000000000000000000000000000073ffffffffffffffffffffffffffffffffffffffff1614611359576040517f08c379a000000000000000000000000000000000000000000000000000000000815260040161135090613b1f565b60405180910390fd5b600160008273ffffffffffffffffffffffffffffffffffffffff1673ffffffffffffffffffffffffffffffffffffffff16815260200190815260200160002060030160009054906101000a900460ff166113e8576040517f08c379a00000000000000000000000000000000000000000000000000000000081526004016113df90613f2d565b60405180910390fd5b6000600160008373ffffffffffffffffffffffffffffffffffffffff1673ffffffffffffffffffffffffffffffffffffffff16815260200190815260200160002060030160006101000a81548160ff0219169083151502179055508073ffffffffffffffffffffffffffffffffffffffff167f3fd30f50e87d9763dd3cd8290c9f1933fb81c60dd96db435729090559b2b63eb600160008473ffffffffffffffffffffffffffffffffffffffff1673ffffffffffffffffffffffffffffffffffffffff1681526020019081526020016000206001016040516114ca9190613fd1565b60405180910390a250565b3373ffffffffffffffffffffffffffffffffffffffff167f000000000000000000000000000000000000000000000000000000000000000073ffffffffffffffffffffffffffffffffffffffff1614611563576040517f08c379a000000000000000000000000000000000000000000000000000000000815260040161155a90613b1f565b60405180910390fd5b60075481106115a7576040517f08c379a000000000000000000000000000000000000000000000000000000000815260040161159e9061403f565b60405180910390fd5b60006002600083815260200190815260200160002060040160006101000a81548160ff02191690831515021790555050565b3373ffffffffffffffffffffffffffffffffffffffff167f000000000000000000000000000000000000000000000000000000000000000073ffffffffffffffffffffffffffffffffffffffff1614611667576040517f08c379a000000000000000000000000000000000000000000000000000000000815260040161165e90613b1f565b60405180910390fd5b6007600081548092919061167a906137da565b91905055506040518060a00160405280600754815260200185858080601f016020809104026020016040519081016040528093929190818152602001838380828437600081840152601f19601f820116905080830192505050505050508152602001838152602001828152602001600115158152506002600060075481526020019081526020016000206000820151816000015560208201518160010190816117239190613e0f565b50604082015181600201556060820151816003015560808201518160040160006101000a81548160ff0219169083151502179055509050506007547fc32eadae7fdefc42e95318a81a92315af349a34c4c26afe73e3bc12a64f28d4f858560405161178f9291906138bf565b60405180910390a250505050565b6060600460008373ffffffffffffffffffffffffffffffffffffffff1673ffffffffffffffffffffffffffffffffffffffff16815260200190815260200160002080548060200260200160405190810160405280929190818152602001828054801561182857602002820191906000526020600020905b815481526020019060010190808311611814575b50505050509050919050565b3373ffffffffffffffffffffffffffffffffffffffff167f000000000000000000000000000000000000000000000000000000000000000073ffffffffffffffffffffffffffffffffffffffff16146118c2576040517f08c379a00000000000000000000000000000000000000000000000000000000081526004016118b990613b1f565b60405180910390fd5b600160008673ffffffffffffffffffffffffffffffffffffffff1673ffffffffffffffffffffffffffffffffffffffff16815260200190815260200160002060030160009054906101000a900460ff1615611952576040517f08c379a0000000000000000000000000000000000000000000000000000000008152600401611949906140ab565b60405180910390fd5b60405180608001604052808673ffffffffffffffffffffffffffffffffffffffff16815260200185858080601f016020809104026020016040519081016040528093929190818152602001838380828437600081840152601f19601f82011690508083019250505050505050815260200183838080601f016020809104026020016040519081016040528093929190818152602001838380828437600081840152601f19601f82011690508083019250505050505050815260200160011515815250600160008773ffffffffffffffffffffffffffffffffffffffff1673ffffffffffffffffffffffffffffffffffffffff16815260200190815260200160002060008201518160000160006101000a81548173ffffffffffffffffffffffffffffffffffffffff021916908373ffffffffffffffffffffffffffffffffffffffff1602179055506020820151816001019081611aaf9190613e0f565b506040820151816002019081611ac59190613e0f565b5060608201518160030160006101000a81548160ff0219169083151502179055509050508473ffffffffffffffffffffffffffffffffffffffff167f3fd30f50e87d9763dd3cd8290c9f1933fb81c60dd96db435729090559b2b63eb8585604051611b319291906138bf565b60405180910390a25050505050565b600160003373ffffffffffffffffffffffffffffffffffffffff1673ffffffffffffffffffffffffffffffffffffffff16815260200190815260200160002060030160009054906101000a900460ff16611bcf576040517f08c379a0000000000000000000000000000000000000000000000000000000008152600401611bc690613666565b60405180910390fd5b6000808273ffffffffffffffffffffffffffffffffffffffff1673ffffffffffffffffffffffffffffffffffffffff16815260200190815260200160002060060160009054906101000a900460ff16611c5d576040517f08c379a0000000000000000000000000000000000000000000000000000000008152600401611c5490613a21565b60405180910390fd5b60008060008373ffffffffffffffffffffffffffffffffffffffff1673ffffffffffffffffffffffffffffffffffffffff1681526020019081526020016000206003018054905014611ce4576040517f08c379a0000000000000000000000000000000000000000000000000000000008152600401611cdb9061413d565b60405180910390fd5b60008060008373ffffffffffffffffffffffffffffffffffffffff1673ffffffffffffffffffffffffffffffffffffffff16815260200190815260200160002060060160006101000a81548160ff0219169083151502179055508073ffffffffffffffffffffffffffffffffffffffff167f48cac28ad4dc618e15f4c2dd5e97751182f166de97b25618318b2112aa951a2f6000808473ffffffffffffffffffffffffffffffffffffffff1673ffffffffffffffffffffffffffffffffffffffff168152602001908152602001600020600101604051611dc49190613fd1565b60405180910390a250565b606060008060008473ffffffffffffffffffffffffffffffffffffffff1673ffffffffffffffffffffffffffffffffffffffff168152602001908152602001600020600301805480602002602001604051908101604052809291908181526020018280548015611e5e57602002820191906000526020600020905b815481526020019060010190808311611e4a575b505050505090506000815167ffffffffffffffff811115611e8257611e81613943565b5b604051908082528060200260200182016040528015611ebb57816020015b611ea8612a4b565b815260200190600190039081611ea05790505b50905060005b8251811015611ffe576000838281518110611edf57611ede6139a6565b5b60200260200101519050600260008281526020019081526020016000206040518060a001604052908160008201548152602001600182018054611f2190613912565b80601f0160208091040260200160405190810160405280929190818152602001828054611f4d90613912565b8015611f9a5780601f10611f6f57610100808354040283529160200191611f9a565b820191906000526020600020905b815481529060010190602001808311611f7d57829003601f168201915b5050505050815260200160028201548152602001600382015481526020016004820160009054906101000a900460ff161515151581525050838381518110611fe557611fe46139a6565b5b6020026020010181905250508080600101915050611ec1565b508092505050919050565b60006020528060005260406000206000915090508060000160009054906101000a900473ffffffffffffffffffffffffffffffffffffffff169080600101805461205290613912565b80601f016020809104026020016040519081016040528092919081815260200182805461207e90613912565b80156120cb5780601f106120a0576101008083540402835291602001916120cb565b820191906000526020600020905b8154815290600101906020018083116120ae57829003601f168201915b5050505050908060020180546120e090613912565b80601f016020809104026020016040519081016040528092919081815260200182805461210c90613912565b80156121595780601f1061212e57610100808354040283529160200191612159565b820191906000526020600020905b81548152906001019060200180831161213c57829003601f168201915b5050505050908060040160009054906101000a900460ff16908060050154908060060160009054906101000a900460ff16905086565b60036020528060005260406000206000915090508060000154908060010154908060020160009054906101000a900473ffffffffffffffffffffffffffffffffffffffff16908060030180546121e490613912565b80601f016020809104026020016040519081016040528092919081815260200182805461221090613912565b801561225d5780601f106122325761010080835404028352916020019161225d565b820191906000526020600020905b81548152906001019060200180831161224057829003601f168201915b5050505050908060040154908060050160009054906101000a900460ff16908060060154908060070154905088565b600560205281600052604060002081815481106122a857600080fd5b9060005260206000209060030201600091509150508060000154908060010160009054906101000a900460ff16908060010160019054906101000a900473ffffffffffffffffffffffffffffffffffffffff169080600201805461230b90613912565b80601f016020809104026020016040519081016040528092919081815260200182805461233790613912565b80156123845780601f1061235957610100808354040283529160200191612384565b820191906000526020600020905b81548152906001019060200180831161236757829003601f168201915b5050505050905084565b600460205281600052604060002081815481106123aa57600080fd5b90600052602060002001600091509150505481565b60075481565b600160003373ffffffffffffffffffffffffffffffffffffffff1673ffffffffffffffffffffffffffffffffffffffff16815260200190815260200160002060030160009054906101000a900460ff16612454576040517f08c379a000000000000000000000000000000000000000000000000000000000815260040161244b90613666565b60405180910390fd5b6000808673ffffffffffffffffffffffffffffffffffffffff1673ffffffffffffffffffffffffffffffffffffffff16815260200190815260200160002060060160009054906101000a900460ff16156124e3576040517f08c379a00000000000000000000000000000000000000000000000000000000081526004016124da906141a9565b60405180910390fd5b6040518060e001604052808673ffffffffffffffffffffffffffffffffffffffff16815260200185858080601f016020809104026020016040519081016040528093929190818152602001838380828437600081840152601f19601f82011690508083019250505050505050815260200183838080601f016020809104026020016040519081016040528093929190818152602001838380828437600081840152601f19601f820116905080830192505050505050508152602001600067ffffffffffffffff8111156125b9576125b8613943565b5b6040519080825280602002602001820160405280156125e75781602001602082028036833780820191505090505b50815260200160011515815260200160008152602001600115158152506000808773ffffffffffffffffffffffffffffffffffffffff1673ffffffffffffffffffffffffffffffffffffffff16815260200190815260200160002060008201518160000160006101000a81548173ffffffffffffffffffffffffffffffffffffffff021916908373ffffffffffffffffffffffffffffffffffffffff160217905550602082015181600101908161269e9190613e0f565b5060408201518160020190816126b49190613e0f565b5060608201518160030190805190602001906126d1929190612a7c565b5060808201518160040160006101000a81548160ff02191690831515021790555060a0820151816005015560c08201518160060160006101000a81548160ff0219169083151502179055509050508473ffffffffffffffffffffffffffffffffffffffff167f48cac28ad4dc618e15f4c2dd5e97751182f166de97b25618318b2112aa951a2f85856040516127679291906138bf565b60405180910390a25050505050565b60016020528060005260406000206000915090508060000160009054906101000a900473ffffffffffffffffffffffffffffffffffffffff16908060010180546127bf90613912565b80601f01602080910402602001604051908101604052809291908181526020018280546127eb90613912565b80156128385780601f1061280d57610100808354040283529160200191612838565b820191906000526020600020905b81548152906001019060200180831161281b57829003601f168201915b50505050509080600201805461284d90613912565b80601f016020809104026020016040519081016040528092919081815260200182805461287990613912565b80156128c65780601f1061289b576101008083540402835291602001916128c6565b820191906000526020600020905b8154815290600101906020018083116128a957829003601f168201915b5050505050908060030160009054906101000a900460ff16905084565b6000604051806080016040528042815260200185600281111561290957612908612fd3565b5b81526020018473ffffffffffffffffffffffffffffffffffffffff168152602001838152509050600560008681526020019081526020016000208190806001815401808255809150506001900390600052602060002090600302016000909190919091506000820151816000015560208201518160010160006101000a81548160ff021916908360028111156129a2576129a1612fd3565b5b021790555060408201518160010160016101000a81548173ffffffffffffffffffffffffffffffffffffffff021916908373ffffffffffffffffffffffffffffffffffffffff1602179055506060820151816002019081612a039190613e0f565b505050847f48873951e17085e6e9b18b6da7007a71147701575905a0bebcec5fad3876e16c85858542604051612a3c94939291906141c9565b60405180910390a25050505050565b6040518060a00160405280600081526020016060815260200160008152602001600081526020016000151581525090565b828054828255906000526020600020908101928215612ab8579160200282015b82811115612ab7578251825591602001919060010190612a9c565b5b509050612ac59190612ac9565b5090565b5b80821115612ae2576000816000905550600101612aca565b5090565b600080fd5b600080fd5b6000819050919050565b612b0381612af0565b8114612b0e57600080fd5b50565b600081359050612b2081612afa565b92915050565b600080fd5b600080fd5b600080fd5b60008083601f840112612b4b57612b4a612b26565b5b8235905067ffffffffffffffff811115612b6857612b67612b2b565b5b602083019150836001820283011115612b8457612b83612b30565b5b9250929050565b600080600060408486031215612ba457612ba3612ae6565b5b6000612bb286828701612b11565b935050602084013567ffffffffffffffff811115612bd357612bd2612aeb565b5b612bdf86828701612b35565b92509250509250925092565b600060208284031215612c0157612c00612ae6565b5b6000612c0f84828501612b11565b91505092915050565b612c2181612af0565b82525050565b600081519050919050565b600082825260208201905092915050565b60005b83811015612c61578082015181840152602081019050612c46565b60008484015250505050565b6000601f19601f8301169050919050565b6000612c8982612c27565b612c938185612c32565b9350612ca3818560208601612c43565b612cac81612c6d565b840191505092915050565b60008115159050919050565b612ccc81612cb7565b82525050565b600060a082019050612ce76000830188612c18565b8181036020830152612cf98187612c7e565b9050612d086040830186612c18565b612d156060830185612c18565b612d226080830184612cc3565b9695505050505050565b600081519050919050565b600082825260208201905092915050565b6000819050602082019050919050565b612d6181612af0565b82525050565b600082825260208201905092915050565b6000612d8382612c27565b612d8d8185612d67565b9350612d9d818560208601612c43565b612da681612c6d565b840191505092915050565b612dba81612cb7565b82525050565b600060a083016000830151612dd86000860182612d58565b5060208301518482036020860152612df08282612d78565b9150506040830151612e056040860182612d58565b506060830151612e186060860182612d58565b506080830151612e2b6080860182612db1565b508091505092915050565b6000612e428383612dc0565b905092915050565b6000602082019050919050565b6000612e6282612d2c565b612e6c8185612d37565b935083602082028501612e7e85612d48565b8060005b85811015612eba5784840389528151612e9b8582612e36565b9450612ea683612e4a565b925060208a01995050600181019050612e82565b50829750879550505050505092915050565b60006020820190508181036000830152612ee68184612e57565b905092915050565b6000602082019050612f036000830184612c18565b92915050565b600073ffffffffffffffffffffffffffffffffffffffff82169050919050565b6000612f3482612f09565b9050919050565b612f4481612f29565b8114612f4f57600080fd5b50565b600081359050612f6181612f3b565b92915050565b60008060408385031215612f7e57612f7d612ae6565b5b6000612f8c85828601612f52565b9250506020612f9d85828601612b11565b9150509250929050565b600081519050919050565b600082825260208201905092915050565b6000819050602082019050919050565b7f4e487b7100000000000000000000000000000000000000000000000000000000600052602160045260246000fd5b6003811061301357613012612fd3565b5b50565b600081905061302482613002565b919050565b600061303482613016565b9050919050565b61304481613029565b82525050565b61305381612f29565b82525050565b60006080830160008301516130716000860182612d58565b506020830151613084602086018261303b565b506040830151613097604086018261304a565b50606083015184820360608601526130af8282612d78565b9150508091505092915050565b60006130c88383613059565b905092915050565b6000602082019050919050565b60006130e882612fa7565b6130f28185612fb2565b93508360208202850161310485612fc3565b8060005b85811015613140578484038952815161312185826130bc565b945061312c836130d0565b925060208a01995050600181019050613108565b50829750879550505050505092915050565b6000602082019050818103600083015261316c81846130dd565b905092915050565b6000806000806000608086880312156131905761318f612ae6565b5b600061319e88828901612b11565b955050602086013567ffffffffffffffff8111156131bf576131be612aeb565b5b6131cb88828901612b35565b945094505060406131de88828901612b11565b92505060606131ef88828901612b11565b9150509295509295909350565b60006020828403121561321257613211612ae6565b5b600061322084828501612f52565b91505092915050565b6000806000806060858703121561324357613242612ae6565b5b600085013567ffffffffffffffff81111561326157613260612aeb565b5b61326d87828801612b35565b9450945050602061328087828801612b11565b925050604061329187828801612b11565b91505092959194509250565b600081519050919050565b600082825260208201905092915050565b6000819050602082019050919050565b60006132d58383612d58565b60208301905092915050565b6000602082019050919050565b60006132f98261329d565b61330381856132a8565b935061330e836132b9565b8060005b8381101561333f57815161332688826132c9565b9750613331836132e1565b925050600181019050613312565b5085935050505092915050565b6000602082019050818103600083015261336681846132ee565b905092915050565b60008060008060006060868803121561338a57613389612ae6565b5b600061339888828901612f52565b955050602086013567ffffffffffffffff8111156133b9576133b8612aeb565b5b6133c588828901612b35565b9450945050604086013567ffffffffffffffff8111156133e8576133e7612aeb565b5b6133f488828901612b35565b92509250509295509295909350565b61340c81612f29565b82525050565b600060c0820190506134276000830189613403565b81810360208301526134398188612c7e565b9050818103604083015261344d8187612c7e565b905061345c6060830186612cc3565b6134696080830185612c18565b61347660a0830184612cc3565b979650505050505050565b61348a81613029565b82525050565b6000610100820190506134a6600083018b612c18565b6134b3602083018a612c18565b6134c06040830189613403565b81810360608301526134d28188612c7e565b90506134e16080830187612c18565b6134ee60a0830186613481565b6134fb60c0830185612c18565b61350860e0830184612c18565b9998505050505050505050565b6000806040838503121561352c5761352b612ae6565b5b600061353a85828601612b11565b925050602061354b85828601612b11565b9150509250929050565b600060808201905061356a6000830187612c18565b6135776020830186613481565b6135846040830185613403565b81810360608301526135968184612c7e565b905095945050505050565b60006080820190506135b66000830187613403565b81810360208301526135c88186612c7e565b905081810360408301526135dc8185612c7e565b90506135eb6060830184612cc3565b95945050505050565b7f4f6e6c7920696e73757265722063616e2063616c6c20746869732066756e637460008201527f696f6e2e00000000000000000000000000000000000000000000000000000000602082015250565b6000613650602483612c32565b915061365b826135f4565b604082019050919050565b6000602082019050818103600083015261367f81613643565b9050919050565b7f436c61696d206973206e6f742070656e64696e672e0000000000000000000000600082015250565b60006136bc601583612c32565b91506136c782613686565b602082019050919050565b600060208201905081810360008301526136eb816136af565b9050919050565b600081905092915050565b7f4672617564000000000000000000000000000000000000000000000000000000600082015250565b60006137336005836136f2565b915061373e826136fd565b600582019050919050565b600061375482613726565b9150819050919050565b82818337600083830152505050565b600061377983856136f2565b935061378683858461375e565b82840190509392505050565b600061379f82848661376d565b91508190509392505050565b7f4e487b7100000000000000000000000000000000000000000000000000000000600052601160045260246000fd5b60006137e582612af0565b91507fffffffffffffffffffffffffffffffffffffffffffffffffffffffffffffffff8203613817576138166137ab565b5b600182019050919050565b7f436c61696d2072656a65637465643a2000000000000000000000000000000000600082015250565b60006138586010836136f2565b915061386382613822565b601082019050919050565b60006138798261384b565b915061388682848661376d565b91508190509392505050565b600061389e8385612c32565b93506138ab83858461375e565b6138b483612c6d565b840190509392505050565b600060208201905081810360008301526138da818486613892565b90509392505050565b7f4e487b7100000000000000000000000000000000000000000000000000000000600052602260045260246000fd5b6000600282049050600182168061392a57607f821691505b60208210810361393d5761393c6138e3565b5b50919050565b7f4e487b7100000000000000000000000000000000000000000000000000000000600052604160045260246000fd5b600061397d82612af0565b915061398883612af0565b92508282039050818111156139a05761399f6137ab565b5b92915050565b7f4e487b7100000000000000000000000000000000000000000000000000000000600052603260045260246000fd5b7f55736572206973206e6f7420726567697374657265642e000000000000000000600082015250565b6000613a0b601783612c32565b9150613a16826139d5565b602082019050919050565b60006020820190508181036000830152613a3a816139fe565b9050919050565b7f506f6c696379206973206e6f742076616c696400000000000000000000000000600082015250565b6000613a77601383612c32565b9150613a8282613a41565b602082019050919050565b60006020820190508181036000830152613aa681613a6a565b9050919050565b7f4f6e6c792061646d696e2063616e2063616c6c20746869732066756e6374696f60008201527f6e2e000000000000000000000000000000000000000000000000000000000000602082015250565b6000613b09602283612c32565b9150613b1482613aad565b604082019050919050565b60006020820190508181036000830152613b3881613afc565b9050919050565b7f55736572206d757374206265207265676973746572656420746f207375626d6960008201527f7420636c61696d732e0000000000000000000000000000000000000000000000602082015250565b6000613b9b602983612c32565b9150613ba682613b3f565b604082019050919050565b60006020820190508181036000830152613bca81613b8e565b9050919050565b7f436c61696d20616d6f756e74206d75737420626520677265617465722074686160008201527f6e207a65726f2e00000000000000000000000000000000000000000000000000602082015250565b6000613c2d602783612c32565b9150613c3882613bd1565b604082019050919050565b60006020820190508181036000830152613c5c81613c20565b9050919050565b60008190508160005260206000209050919050565b60006020601f8301049050919050565b600082821b905092915050565b600060088302613cc57fffffffffffffffffffffffffffffffffffffffffffffffffffffffffffffffff82613c88565b613ccf8683613c88565b95508019841693508086168417925050509392505050565b6000819050919050565b6000613d0c613d07613d0284612af0565b613ce7565b612af0565b9050919050565b6000819050919050565b613d2683613cf1565b613d3a613d3282613d13565b848454613c95565b825550505050565b600090565b613d4f613d42565b613d5a818484613d1d565b505050565b5b81811015613d7e57613d73600082613d47565b600181019050613d60565b5050565b601f821115613dc357613d9481613c63565b613d9d84613c78565b81016020851015613dac578190505b613dc0613db885613c78565b830182613d5f565b50505b505050565b600082821c905092915050565b6000613de660001984600802613dc8565b1980831691505092915050565b6000613dff8383613dd5565b9150826002028217905092915050565b613e1882612c27565b67ffffffffffffffff811115613e3157613e30613943565b5b613e3b8254613912565b613e46828285613d82565b600060209050601f831160018114613e795760008415613e67578287015190505b613e718582613df3565b865550613ed9565b601f198416613e8786613c63565b60005b82811015613eaf57848901518255600182019150602085019450602081019050613e8a565b86831015613ecc5784890151613ec8601f891682613dd5565b8355505b6001600288020188555050505b505050505050565b7f496e737572657220646f6573206e6f742065786973742e000000000000000000600082015250565b6000613f17601783612c32565b9150613f2282613ee1565b602082019050919050565b60006020820190508181036000830152613f4681613f0a565b9050919050565b60008154613f5a81613912565b613f648186612c32565b94506001821660008114613f7f5760018114613f9557613fc8565b60ff198316865281151560200286019350613fc8565b613f9e85613c63565b60005b83811015613fc057815481890152600182019150602081019050613fa1565b808801955050505b50505092915050565b60006020820190508181036000830152613feb8184613f4d565b905092915050565b7f506f6c69637920646f6573206e6f742065786973742e00000000000000000000600082015250565b6000614029601683612c32565b915061403482613ff3565b602082019050919050565b600060208201905081810360008301526140588161401c565b9050919050565b7f496e737572657220616c72656164792065786973747300000000000000000000600082015250565b6000614095601683612c32565b91506140a08261405f565b602082019050919050565b600060208201905081810360008301526140c481614088565b9050919050565b7f55736572207374696c6c206861732061737369676e656420706f6c696369657360008201527f2e00000000000000000000000000000000000000000000000000000000000000602082015250565b6000614127602183612c32565b9150614132826140cb565b604082019050919050565b600060208201905081810360008301526141568161411a565b9050919050565b7f5573657220697320616c726561647920726567697374657265642e0000000000600082015250565b6000614193601b83612c32565b915061419e8261415d565b602082019050919050565b600060208201905081810360008301526141c281614186565b9050919050565b60006080820190506141de6000830187613481565b6141eb6020830186613403565b81810360408301526141fd8185612c7e565b905061420c6060830184612c18565b9594505050505056fea2646970667358221220623bf374efcb2006fabd48b42874cc06ef92c18b9622b0a1ce781c78a330e12e64736f6c63430008180033",
  "linkReferences": {},
  "deployedLinkReferences": {}
}